:020000040800F2
:10000000000002200DD9000831CD000833CD0008D2
:1000100035CD000837CD000839CD000800000000BC
:100020000000000000000000000000003BCD0008C0
:100030003DCD0008000000003FCD000841CD000884
:100040005DD900085DD900085DD900085DD90008B8
:100050005DD900085DD900085DD900085DD90008A8
:100060005DD900085DD900085DD900085DD9000898
:100070005DD900085DD900085DD900085DD9000888
:100080005DD900085DD900085DD900085DD9000878
:100090005DD900085DD900085DD900085DD9000868
:1000A0005DD900085DD900085DD900085DD9000858
:1000B00045CD00085DD900085DD900085DD900086C
:1000C0005DD900085DD900085DD900085DD9000838
:1000D0005DD900085DD900085DD9000861CD000830
:1000E0005DD900085DD900085DD900085DD9000818
:1000F0005DD900085DD900085DD900085DD9000808
:100100005DD900085DD900085DD900085DD90008F7
:100110005DD90008E1CD00085DD900085DD900086F
:100120005DD900085DD900085DD900085DD90008D7
:100130005DD900085DD900085DD900085DD90008C7
:100140005DD900085DD900085DD90008EDCD000833
:100150005DD900085DD900085DD90008F9CD000817
:100160005DD900085DD900085DD900085DD9000897
:100170005DD900085DD900085DD9000800000000C5
:080180005DD900085DD90008FB
:1001900010B5054C237833B9044B13B10448AFF3C1
:1001A00000800123237010BD900700200000000094
:1001B00084ED000808B5034B1BB103490348AFF3B6
:1001C000008008BD000000009407002084ED0008B6
:1001D00010F8012B11F8013B012A28BF9A42F7D0F1
:1001E000D01A7047034613F8012B002AFBD1181AC6
:1001F000013870470000000000000000000000000F
:1002000001F0FF01102A2BDB10F0070F08D010F8C7
:10021000013B013A8B422DD010F0070F42B3F6D1CB
:10022000F0B441EA012141EA014122F007047FF0E4
:1002300000070023F0E80256083C85EA010586EA3B
:10024000010685FA47F5A3FA87F586FA47F6A5FA77
:1002500087F68EB9EED1F0BC01F0FF0102F0070283
:1002600032B110F8013B013A83EA010313B1F8D12E
:100270000020704701387047002D06BF354603380F
:10028000073815F0010F07D1013015F4807F02BF48
:10029000013015F4C03F0130F0BC0138704700BF99
:1002A00081F0004102E000BF83F0004330B54FEA27
:1002B00041044FEA430594EA050F08BF90EA020F94
:1002C0001FBF54EA000C55EA020C7FEA645C7FEA27
:1002D000655C00F0E2804FEA5454D4EB5555B8BF4A
:1002E0006D420CDD2C4480EA020281EA030382EABB
:1002F000000083EA010180EA020281EA0303362D4D
:1003000088BF30BD11F0004F4FEA01314FF4801C1F
:100310004CEA113102D0404261EB410113F0004F31
:100320004FEA03334CEA133302D0524263EB4303E8
:1003300094EA050F00F0A780A4F10104D5F1200E86
:100340000DDB02FA0EFC22FA05F2801841F10001E1
:1003500003FA0EF2801843FA05F359410EE0A5F1B5
:1003600020050EF1200E012A03FA0EFC28BF4CF0E6
:10037000020C43FA05F3C01851EBE37101F000459C
:1003800007D54FF0000EDCF1000C7EEB00006EEBA9
:100390000101B1F5801F1BD3B1F5001F0CD3490833
:1003A0005FEA30004FEA3C0C04F101044FEA44528A
:1003B00012F5800F80F09A80BCF1004F08BF5FEA11
:1003C000500C50F1000041EB045141EA050130BDF1
:1003D0005FEA4C0C404141EB010111F4801FA4F194
:1003E0000104E9D191F0000F04BF01460020B1FAE9
:1003F00081F308BF2033A3F10B03B3F120020CDA21
:100400000C3208DD02F1140CC2F10C0201FA0CF0FE
:1004100021FA02F10CE002F11402D8BFC2F1200C63
:1004200001FA02F120FA0CFCDCBF41EA0C01904019
:10043000E41AA2BF01EB0451294330BD6FEA040462
:100440001F3C1CDA0C340EDC04F11404C4F120024D
:1004500020FA04F001FA02F340EA030021FA04F35F
:1004600045EA030130BDC4F10C04C4F1200220FAB6
:1004700002F001FA04F340EA0300294630BD21FAF4
:1004800004F0294630BD94F0000F83F4801306BFBA
:1004900081F480110134013D4EE77FEA645C18BFAE
:1004A0007FEA655C29D094EA050F08BF90EA020F45
:1004B00005D054EA000C04BF1946104630BD91EA3D
:1004C000030F1EBF0021002030BD5FEA545C05D140
:1004D0004000494128BF41F0004130BD14F580047F
:1004E0003CBF01F5801130BD01F0004545F0FE41F3
:1004F00041F470014FF0000030BD7FEA645C1ABF28
:10050000194610467FEA655C1CBF0B46024650EA5E
:10051000013406BF52EA033591EA030F41F400218A
:1005200030BD00BF90F0000F04BF0021704730B510
:100530004FF4806404F132044FF000054FF00001E5
:1005400050E700BF90F0000F04BF0021704730B5A6
:100550004FF4806404F1320410F0004548BF40427B
:100560004FF000013EE700BF42004FEAE2014FEAD0
:1005700031014FEA02701FBF12F07F4393F07F4FAB
:1005800081F06051704732F07F4208BF704793F0AE
:100590007F4F04BF41F40021704730B54FF46074C1
:1005A00001F0004521F000411CE700BF50EA0102C4
:1005B00008BF704730B54FF000050AE050EA01026D
:1005C00008BF704730B511F0004502D5404261EBDD
:1005D00041014FF4806404F132045FEA915C3FF41E
:1005E000D8AE4FF003025FEADC0C18BF03325FEABB
:1005F000DC0C18BF033202EBDC02C2F1200300FA6C
:1006000003FC20FA02F001FA03FE40EA0E0021FA90
:1006100002F11444BDE600BF70B54FF0FF0C4CF47E
:10062000E06C1CEA11541DBF1CEA135594EA0C0F30
:1006300095EA0C0F00F0DEF82C4481EA030621EA6B
:100640004C5123EA4C5350EA013518BF52EA0335A6
:1006500041F4801143F4801338D0A0FB02CE4FF058
:100660000005E1FB02E506F00042E0FB03E54FF088
:100670000006E1FB03569CF0000F18BF4EF0010E80
:10068000A4F1FF04B6F5007F64F5407404D25FEA7C
:100690004E0E6D4146EB060642EAC62141EA55512F
:1006A0004FEAC52040EA5E504FEACE2EB4F1FD0C71
:1006B00088BFBCF5E06F1ED8BEF1004F08BF5FEAEF
:1006C000500E50F1000041EB045170BD06F00046A1
:1006D00046EA010140EA020081EA0301B4EB5C044E
:1006E000C2BFD4EB0C0541EA045170BD41F4801146
:1006F0004FF0000E013C00F3AB8014F1360FDEBF6B
:10070000002001F0004170BDC4F10004203C35DA46
:100710000C341BDC04F11404C4F1200500FA05F3C9
:1007200020FA04F001FA05F240EA020001F000426A
:1007300021F0004110EBD37021FA04F642EB0601E0
:100740005EEA430E08BF20EAD37070BDC4F10C040A
:10075000C4F1200500FA04F320FA05F001FA04F2CE
:1007600040EA020001F0004110EBD37041F10001BA
:100770005EEA430E08BF20EAD37070BDC4F12005C5
:1007800000FA05F24EEA020E20FA04F301FA05F22D
:1007900043EA020321FA04F001F0004121FA04F2D5
:1007A00020EA020000EBD3705EEA430E08BF20EAA5
:1007B000D37070BD94F0000F0FD101F000464000DF
:1007C00041EB010111F4801F08BF013CF7D041EA61
:1007D000060195F0000F18BF704703F00046520065
:1007E00043EB030313F4801F08BF013DF7D043EA36
:1007F0000603704794EA0C0F0CEA135518BF95EAEC
:100800000C0F0CD050EA410618BF52EA4306D1D172
:1008100081EA030101F000414FF0000070BD50EA91
:10082000410606BF1046194652EA430619D094EA1B
:100830000C0F02D150EA013613D195EA0C0F05D105
:1008400052EA03361CBF104619460AD181EA030159
:1008500001F0004141F0FE4141F470014FF0000011
:1008600070BD41F0FE4141F4780170BD70B54FF0AC
:10087000FF0C4CF4E06C1CEA11541DBF1CEA13552C
:1008800094EA0C0F95EA0C0F00F0A7F8A4EB05040E
:1008900081EA030E52EA03354FEA013100F0888005
:1008A0004FEA03334FF0805545EA131343EA1263CE
:1008B0004FEA022245EA111545EA10654FEA002683
:1008C0000EF000419D4208BF964244F1FD0404F53C
:1008D000407402D25B084FEA3202B61A65EB030598
:1008E0005B084FEA32024FF480104FF4002CB6EB55
:1008F000020E75EB030E22BFB61A754640EA0C00D5
:100900005B084FEA3202B6EB020E75EB030E22BF14
:10091000B61A754640EA5C005B084FEA3202B6EB55
:10092000020E75EB030E22BFB61A754640EA9C0014
:100930005B084FEA3202B6EB020E75EB030E22BFE4
:10094000B61A754640EADC0055EA060E18D04FEAA2
:10095000051545EA16754FEA06164FEAC30343EA42
:1009600052734FEAC2025FEA1C1CC0D111F4801F0F
:100970000BD141EA00014FF000004FF0004CB6E708
:1009800011F4801F04BF01430020B4F1FD0C88BFA7
:10099000BCF5E06F3FF6AFAEB5EB030C04BFB6EBB2
:1009A000020C5FEA500C50F1000041EB045170BDA5
:1009B0000EF0004E4EEA113114EB5C04C2BFD4EBD2
:1009C0000C0541EA045170BD41F480114FF0000E56
:1009D000013C90E645EA060E8DE60CEA135594EAD2
:1009E0000C0F08BF95EA0C0F3FF43BAF94EA0C0FD5
:1009F0000AD150EA01347FF434AF95EA0C0F7FF44A
:100A000025AF104619462CE795EA0C0F06D152EA9D
:100A100003353FF4FDAE1046194622E750EA410681
:100A200018BF52EA43067FF4C5AE50EA41047FF492
:100A30000DAF52EA43057FF4EBAE12E74FF0FF3CF7
:100A400006E000BF4FF0010C02E000BF4FF0010CC8
:100A50004DF804CD4FEA410C7FEA6C5C4FEA430C41
:100A600018BF7FEA6C5C1BD001B050EA410C0CBF90
:100A700052EA430C91EA030F02BF90EA020F0020F2
:100A8000704710F1000F91EA030F58BF994208BF59
:100A900090422CBFD8176FEAE37040F00100704716
:100AA0004FEA410C7FEA6C5C02D150EA013C07D16D
:100AB0004FEA430C7FEA6C5CD6D152EA033CD3D0B8
:100AC0005DF8040B704700BF8446104662468C46B2
:100AD0001946634600E000BF01B5FFF7B7FF0028E5
:100AE00048BF10F1000F01BD4DF808EDFFF7F4FF0E
:100AF0000CBF012000205DF808FB00BF4DF808ED99
:100B0000FFF7EAFF34BF012000205DF808FB00BFBB
:100B10004DF808EDFFF7E0FF94BF012000205DF8DD
:100B200008FB00BF4DF808EDFFF7CEFF94BF012092
:100B300000205DF808FB00BF4DF808EDFFF7C4FF8B
:100B400034BF012000205DF808FB00BF4FEA4102DE
:100B500012F5001215D211D56FF47873B3EB62520F
:100B600012D94FEAC12343F0004343EA505311F036
:100B7000004F23FA02F018BF404270474FF00000C8
:100B8000704750EA013005D111F0004008BF6FF006
:100B9000004070474FF00000704700BF4A0011D27C
:100BA00012F5001211D20DD56FF47873B3EB6252C7
:100BB0000ED44FEAC12343F0004343EA505323FAD3
:100BC00002F070474FF00000704750EA013002D148
:100BD0004FF0FF3070474FF00000704753B94AB9EB
:100BE000002908BF00281CBF4FF0FF314FF0FF3035
:100BF00000F072B9ADF1080C6DE904CE00F006F812
:100C0000DDF804E0DDE9022304B070472DE9F04788
:100C1000089E04468846002B4BD18A42154667D968
:100C2000B2FA82F24AB1C2F1200701FA02F320FAC5
:100C300007F7954047EA030894404FEA154E230C06
:100C4000B8FBFEF71FFA85FC0EFB178843EA084342
:100C500007FB0CF1994209D9EB1807F1FF3080F03E
:100C60001B81994240F21881023F2B445B1AA4B2C7
:100C7000B3FBFEF00EFB103344EA034400FB0CFC14
:100C8000A44509D92C1900F1FF3380F00781A44550
:100C900040F2048102382C4440EA0740A4EB0C04E3
:100CA00000271EB1D4400023C6E900433946BDE801
:100CB000F0878B4209D9002E00F0EB800027C6E9AF
:100CC000000138463946BDE8F087B3FA83F7002FB4
:100CD00047D18B4202D3824200F2FA80841A61EB40
:100CE000030301209846002EE0D0C6E90048DDE766
:100CF00002B9FFDEB2FA82F2002A40F08F80491B6F
:100D00004FEA154E1FFA85F80127B1FBFEFC230CB4
:100D10000EFB1C1143EA014308FB0CF1994207D971
:100D2000EB180CF1FF3002D2994200F2CD808446DC
:100D3000591AA3B2B1FBFEF00EFB101443EA0444AF
:100D400008FB00F8A04507D92C1900F1FF3302D2A7
:100D5000A04500F2B6801846A4EB080440EA0C4017
:100D60009FE7C7F1200CBB4022FA0CFE4EEA030EAF
:100D700001FA07F420FA0CF521FA0CF34FEA1E48A9
:100D80002543B3FBF8F92C0C08FB19331FFA8EFA34
:100D900044EA034309FB0AF49C4202FA07F200FA10
:100DA00007F10BD91EEB030309F1FF3080F08780B8
:100DB0009C4240F28480A9F1020973441B1BADB22E
:100DC000B3FBF8F008FB103345EA034400FB0AFAD2
:100DD000A24508D91EEB040400F1FF336BD2A245F3
:100DE00069D90238744440EA0940A0FB0289A4EBA7
:100DF0000A044C45C2464B4654D351D0002E69D00C
:100E0000B1EB0A0564EB030404FA0CFCFD40FC4062
:100E10004CEA0505C6E90054002747E7C2F1200364
:100E200020FA03F7954001FA02F021FA03F34FEAA2
:100E3000154E3843010CB3FBFEF71FFA85F80EFB85
:100E4000173341EA034107FB08F38B4204FA02F42B
:100E500007D9691807F1FF3C2FD28B422DD9023FE9
:100E60002944CB1A81B2B3FBFEF00EFB103341EAEA
:100E7000034100FB08F38B4207D9691800F1FF3CDE
:100E800017D28B4215D902382944C91A40EA0747BC
:100E90003BE73746304609E70746E7E61846FBE6F4
:100EA0004145ABD2B8EB020A69EB0E02013813469A
:100EB000A4E76046E9E7184695E76746D1E781462B
:100EC0007CE702382C4447E7ACF1020C2B442FE7B7
:100ED000384608E73746E9E6704700BF38B50E4A9E
:100EE0000E4B054618784FF47A73B3FBF0F3106895
:100EF000B0FBF3F000F068FA044658B90F2D09D89A
:100F0000024629464FF0FF3000F01CFA044B204601
:100F10001D6038BD0120FCE7B40500200000002062
:100F20000400002008B50B4B1A6842F400721A60E6
:100F30001A6842F480621A601A6842F480721A6079
:100F4000032000F0EDF90020FFF7C8FF0BF008FDCB
:100F5000002008BD003C0240034A044B11681B7886
:100F60000B441360704700BFC41A0020000000202B
:100F7000014B1868704700BFC41A002038B50446FA
:100F8000FFF7F6FF631C1CBF054B1B78054618BF17
:100F9000E418FFF7EDFF401BA042FAD338BD00BFB5
:100FA00000000020014B1868704700BF107AFF1F37
:100FB000014B1868704700BF147AFF1F014B186877
:100FC000704700BF187AFF1F38B50446002800F0AC
:100FD0009B80056C25B90BF0DFFC656484F83C5000
:100FE000236CDB0600F18E80236C23F4885323F0FE
:100FF000020343F002032364444B5A6822F4403254
:101000005A605A6861680A435A60236821695A68BD
:1010100022F480725A605A6842EA01225A605A6881
:10102000A16822F040725A605A680A435A609A686E
:10103000E16822F400629A609A680A439A6034492F
:10104000A26A8A4252D0996821F0706199609968C9
:101050000A439A609A68E16A22F040529A609A685C
:101060000A439A609A68217E22F002029A609A6886
:1010700042EA41029A6094F82020002A3ED05A6841
:10108000616A42F400625A605A6822F460425A600F
:101090005A68013942EA41325A60DA6AE16922F457
:1010A0007002DA62DA6A013942EA0152DA629A6857
:1010B00094F8301022F400729A609A6842EA412251
:1010C0009A609A68616922F480629A609A68002046
:1010D00042EA81229A606064236C23F0030343F0A8
:1010E00001032364002384F83C3038BD9A6822F061
:1010F00070629A609A6822F04052B2E75A6822F40D
:101100000062C9E70120EDE70120EEE7002301407E
:101110000100000F82B00023019390F83C30012BB6
:1011200061D0012380F83C3003689A68D10705D567
:101130009A68D20714D4002002B070479A682B49ED
:1011400042F001029A602A4A1268B2FBF1F202EB05
:1011500042020192019A002AEAD0019A013AF8E784
:10116000026C22F4E06222F0010242F48072026416
:101170005A68510541BF026C22F4405242F4805239
:101180000264026C12F480521CBF426C22F0060210
:101190004264002280F83C206FF022021A60154A57
:1011A000516811F01F0F14491AD18B4206D001F576
:1011B00080718B420BD15268D206BCD1986810F076
:1011C0004050B8D19A6842F080429A60B4E70B4927
:1011D0008B42B0D1526802F01F020F2AEED9AAE763
:1011E0008B42A8D1EAE70220A6E700BF40420F00E9
:1011F000B4050020002301400020014000220140EE
:10120000F7B50023019390F83C30012B7ED00D6898
:101210008E680123092D80F83C30ACB2036829D9CF
:1012200004EB4402DF681E3A4FF0070C0CFA02FC94
:1012300027EA0C07DF60DF6806FA02F23A43DA6059
:101240004968062901EB810224D8596B053A1F260B
:10125000964021EA06015963596B04FA02F20A43E7
:101260005A632B4A934231D0002380F83C30184611
:1012700003B0F0BD1F6905EB45024FF0070C0CFAF7
:1012800002FC27EA0C071F611F6906FA02F23A43C3
:101290001A61D5E70C294FF01F010BD81E6B233ABA
:1012A000914026EA01011963196B04FA02F20A431C
:1012B0001A63D6E7DE6A413A914026EA0101D96213
:1012C000D96A04FA02F20A43DA62CAE7122D04D19B
:1012D000104A536843F480035360A5F11003012BB7
:1012E000C2D80C4A5368102D43F400035360BBD19D
:1012F000094B0A4A1B68B3FBF2F20A2353430193DA
:10130000019B002BB0D0019B013BF8E70220AFE727
:101310000020014000230140B405002040420F009E
:10132000074AD36823F4E0631B041B0C43F0BF633C
:10133000000243F4003300F4E0600343D3607047DD
:1013400000ED00E0174B70B5DC68C4F30224C4F173
:101350000705042D04F1040328BF04254FF0FF36D0
:10136000062B06FA05F38CBF033C002421EA030395
:10137000A34006FA04F422EA0404002843EA040322
:10138000A8BF00F160404FEA0313BCBF00F00F009C
:10139000054ADBB2AABF00F56140135480F8003360
:1013A00070BD00BF00ED00E014ED00E0002808DB98
:1013B0004209012300F01F0003FA00F0014B43F83B
:1013C0002200704700E100E00138B0F1807F0AD2CE
:1013D000064B074A5860F02182F8231000200722AC
:1013E00098601A6070470120704700BF10E000E06D
:1013F00000ED00E010B5044668B1037903F0FF0288
:1014000013B942710BF0FAFA022323710020012371
:101410002061237110BD0120FCE74379012B10B539
:101420004FF0020318D00371036801221C68427157
:101430008A4022431A6089B919681A684C0707D58F
:1014400002F03802382A03D15A6842F001025A6089
:101450000123037100234371184610BD19681A68EF
:101460004903F5D502F46012B2F5601FF0D15A6855
:1014700042F00202EBE74379012B30B54FF0020353
:1014800018D004680371236840F6FE75954023EA7E
:101490000505D1E900310B4393402B4323602368BA
:1014A000C02101FA02F223EA020201232260037141
:1014B00000234371184630BD90F83530022B03D01D
:1014C00080234365012070470268052380F835308A
:1014D000136823F0010313600020704782B0074BAC
:1014E0004FF4FA521B68B3FBF2F3019300BF019B68
:1014F0005A1E0192002BF9D102B07047B4050020AA
:1015000007B50023019341F2180103685A5842F4C9
:1015100080125A505B580193FFF7E0FF019A03686D
:101520005A5003B05DF804FB70B5044629B14FF47E
:1015300080434FF40062C0E90232E3692268002B65
:10154000D4E90230156843EA0003304843F40073DD
:1015500000EA05000CBF4FF48061002103430B43F8
:10156000136001201568FFF709FD236840221D6004
:1015700001205A605D68FFF701FD23685D6000256A
:101580009D60DD609A6922F0BE021204120C42F0E6
:1015900080029A6101209E69FFF7F0FC2368012018
:1015A0009E61DD61DD69FFF7E9FC2268184BD561BA
:1015B00041F21805012051590B4043F0087343F0E4
:1015C000040353515659FFF7D9FC2368114A5E5161
:1015D00003F5805301201A601D68FFF7CFFC2268D5
:1015E00002F580531D60A369012B07D141F21C0154
:1015F000535843F4803343F0400353506369064A21
:10160000998811601A68054B1A6070BD0F8120FF20
:10161000233FDEF88020C102408002404480024027
:101620002DE9F04190F84540012C4FF0020431D0F3
:10163000012580F8455080F84440C1620C460025E1
:101640004FF4801740F2F45C03F1FF3E9D420CD151
:10165000026841F21003D150012380F84430002386
:1016600080F845301846BDE8F0810CFB0526A660E1
:10167000C66927601EB9266846F44006266004F154
:101680002006AE4594BF8846B046C4F80C800135AC
:101690003446DBE72046E6E72DE9F04390F8454085
:1016A000012C4FF002042FD0012580F8455080F81E
:1016B000444081620C4600254FF0004744F2F45C40
:1016C00040F2F45E03F1FF38AB420CD1026841F204
:1016D0000C03D150012380F84430002380F84530BA
:1016E0001846BDE8F0830EFB0526A66004F120062F
:1016F000A84594BF8946B1462760C4F804C0C4F821
:101700000C9001353446DFE72046EAE790F8453093
:10171000012BF0B54FF0020368D0012280F845207C
:1017200080F8443029B980F8442080F845101046EC
:10173000F0BDC36A1C68002C06DA122380F844301E
:10174000002380F84530F2E740F2F454A1422ED94C
:10175000B1FBF4F204FB12143CB30132244C01F24D
:10176000F45104FB0211C1F30C01002440F2F457C0
:10177000561E1D6825F040551D601CB91D6845F0BA
:1017800080551D60A64208BF1D685F6004BF45F01C
:1017900000551D601D6808BF5960013445F00045C3
:1017A00094421D60DB68E4D10DE0012AD6D11A68AD
:1017B00042F040521A601A68C1F30C0142F0004234
:1017C00059601A60DB68C36241F2140203689958D9
:1017D000490705D50421995041F20402002199508E
:1017E000012380F84430002380F8453018469FE7F5
:1017F0000CFAFFFF90F84530012B30B54FF0020393
:1018000023D080F84430836A1A680124002A80F8C3
:10181000454027DB1A68D96812F4807217D0826BB2
:1018200043632244A24208BF03631B688263C3F37D
:101830000D43043BC363036B9B680364012380F87F
:1018400044300023816280F84530184630BD1D6861
:101850008162AD0553BF836B8463C0E90C320133F1
:1018600058BF83630123002280F8443080F845206C
:10187000EBE7F8B590F84430822B0546164630D099
:10188000822380F8443003688C01186904F4F864FA
:1018900044F0010400F01C0020432C8AE402A4B2AE
:1018A00004431C61FFF764FB074614F0010007D1F5
:1018B0002B685B699BB23360012385F844300CE0F0
:1018C000FFF756FBC01BB0F5803F07D3012385F817
:1018D0004430002385F845300320F8BD2B681C698F
:1018E000E3E70220F9E790F84430422B70B5054653
:1018F0002ED0422380F8443003688C01186904F428
:10190000F86444F0030400F01C0020432C8AE40235
:10191000A4B2044392B25A611C61FFF729FB064648
:1019200014F0010003D1012385F844300CE0FFF7E7
:101930001FFB801BB0F5803F07D3012385F844309F
:10194000002385F84530032070BD2B681C69E7E74C
:101950000220F9E7F7B5002300930446002800F0C1
:10196000DE8090F8443003F0FF021BB980F8452078
:101970000AF096F9002301936A4B5A6C42F48042B4
:101980005A645B6C03F480430193019B664B5A6875
:1019900022F400025A605A68216A0A435A60236896
:1019A00003F580531A6842F001021A60FFF7E0FA6B
:1019B0000546236803F580521268D0071DD41D69BF
:1019C00001F0FCF8594B5A4A0344934225F01C0598
:1019D00022D845F0080523684FF400421D6100211C
:1019E0002046FFF780FF054668B301212046012508
:1019F000FFF79AFD84F844500BE0FFF7B9FA401B5B
:101A0000B0F5FA7FD5D90325002384F8445084F833
:101A10004530284603B0F0BD464B474A0344934245
:101A200002D845F00C05D6E7444B454A034493429F
:101A3000D1D9444B444A0344934294BF45F0040532
:101A400045F01005C7E7FF20FFF798FA6368002B01
:101A500053D0FFF78DFA41F2883706466A460121D6
:101A60002046FFF706FFFFF783FA801BB8420BD929
:101A700001212046FFF758FD012384F8443000235C
:101A800084F845300325C4E7009B5907E6D54FF499
:101A9000805200212046FFF726FF0028A5D1FFF73E
:101AA00067FA41F2883706466A4601212046FFF769
:101AB000E0FEFFF75DFA801BB842D9D8009B9A067A
:101AC000F2D56A461F212046FFF7D3FE00288CD1AD
:101AD000009B13F0100218BF4FF400625B074CBF6D
:101AE00000234FF48043E260A36000212046FFF70B
:101AF0001BFD012384F844308BE7D4E902325B08F4
:101B000043EAD20292B229462046FFF7ECFE0028B3
:101B10007FF46BAF40F6FF70FFF730FAE5E7012581
:101B200077E700BF003802400038014000D3CEFE06
:101B3000BFE1E40040F1E9FD3F787D0100796CFCF4
:101B4000FF596202001F0AFA7FF0FA0290F845304E
:101B5000012B73B505464FF0020031D000242B68ED
:101B600085F8440001941A68012642F0080285F8BD
:101B700045601A601B680193FFF7B0FC2B68019A5F
:101B80001A6000941A6842F004021A601B680093FD
:101B9000FFF7A4FC2B68009A1A602846FFF7B0FCF8
:101BA0002A6841F218032046D15841F40051D1501F
:101BB000D15841F00201D15085F8446085F8454084
:101BC00002B070BD2DE9F04F85B00B68DFF8AC8135
:101BD000684ADFF8AC91019300234FF0010C019C9F
:101BE0000CFA03FC04EA0C06B44540F0AE804C68E5
:101BF00024F01007022F16D14FEAD30A00EB8A0A0D
:101C000003F0070BDAF820504FEA8B0B4FF00F0E62
:101C10000EFA0BFE25EA0E0E0D6905FA0BF545EAE4
:101C20000E05CAF820504FEA430A0325D0F800B049
:101C300005FA0AF5ED4304F0030E05EA0B0B0EFA64
:101C40000AFE013F4EEA0B0E012FC0F800E011D84A
:101C5000876807EA050BCF6807FA0AFE4EEA0B070A
:101C60008760476827EA0C0CC4F300179F4047EAD7
:101C70000C074760C7683D408F6807FA0AF73D4385
:101C8000C560E50061D54FF0000BCDF80CB0D8F879
:101C90004470394D47F48047C8F84470D8F8447010
:101CA00007F480470397039F23F0030707F180475A
:101CB00007F59C3703F0030ED7F808A04FEA8E0E05
:101CC0004FF00F0C0CFA0EFCA8422AEA0C0C43D081
:101CD00005F58065A84241D005F58065A8423FD052
:101CE00005F58065A8423DD005F58065A8423BD04A
:101CF00048453BD005F50065A84239D005F580651B
:101D0000A84214BF0825072505FA0EF545EA0C057B
:101D1000BD601568F74314F4803F0CBF3D40354368
:101D20001560556814F4003F0CBF3D4035435560C5
:101D3000956814F4801F0CBF3D4035439560D5680D
:101D4000A40254BF3D403543D5600133102B7FF4CE
:101D500044AF05B0BDE8F08F5D46D5E70125D3E778
:101D60000225D1E70325CFE70425CDE70525CBE7FD
:101D70000625C9E7003C014000000240003802404F
:101D8000001402400AB1816170470904FBE743690E
:101D900031EA030308BF0904816170472DE9FF4759
:101DA000044690F8B8029DF830709DF834C0BDF834
:101DB00038E0012827D0282000FB0140012500261B
:101DC00012F0800F84F8B85202F07F0908BF354640
:101DD00080F83D6080F8383080F8391080F83FC0D6
:101DE00080F83A9080F83B5080F83C70A0F840E0D2
:101DF000CDE901CE0097206801F06AFF84F8B8624F
:101E000004B0BDE8F0870220FAE790F8B832012B61
:101E100010B5044609D0012380F8B832006801F0FB
:101E2000DFFF002084F8B80210BD0220FCE72DE996
:101E3000F04107468AB0002841D090F8B9320468D2
:101E400003F0FF021BB980F8B8220BF06DF80323F2
:101E500087F8B932E36B3C4613F4807354F8100BE7
:101E600008BF3B6101F0F0FD0FCC6D460FC50FCCF4
:101E70000FC594E8030085E8030007F104083E4617
:101E800098E80E00386801F099FD56F8100B012112
:101E900001F0E0FD0FCE6D460FC50FCE0FC594E8E3
:101EA000030085E8030098E80E00386801F090FE12
:101EB000012387F8B93200200AB0BDE8F081012083
:101EC000FAE70000F0B4282404FB01049DF8107028
:101ED000059EBDF8185084F83B2084F83F306FB958
:101EE0000327022B84F842702BD0BB4229D0012B50
:101EF00031D1282303FB010300222AE04FF0020C1A
:101F000084F842C0032B26D801A454F823F000BF64
:101F1000211F0008F31E0008431F0008431F00088C
:101F2000012F18D1BAB925B9282303FB010383F87F
:101F30005170282303FB010393F851204AB1022278
:101F400007E0282303FB0103CAB993F85140002C92
:101F5000F5D183F84220282404FB0103002283F8F2
:101F600039101946C3E9116583F85C20DA6483F8F7
:101F70005D203831027C0068F0BC01F095BF93F819
:101F80005020DBE72DE9F04F066885B00546304666
:101F900001F0C0FD012840F0ED80286801F0B6FD99
:101FA000002800F0E780286801F0B0FD800248BFFB
:101FB0002B68286844BF4FF400125A6101F0A6FD57
:101FC000C10248BF2B68286844BF4FF480125A6191
:101FD00001F09CFD420148BF2B68286844BF4FF0C8
:101FE00080625A6101F092FD830748BF2B68286820
:101FF00044BF02225A6101F089FD870010D5D6F84E
:10200000403423F02E03C6F8403428460AF0DCFFA3
:102010000121286801F082FD2B684FF000525A61BF
:10202000286801F073FDC40143D52C68D4F840340E
:102030000293D4F840340393039B23F02E030393BD
:10204000029B98070DD5029BD90706D5A36923F0FB
:102050000053A36128460AF0B3FF039B43F0020339
:102060000393029B1A071AD5039B43F008030393BB
:10207000029B5B0740F18980A96902297DD1029BFF
:10208000286803F4C023B3F5802F18BF012101F0A5
:1020900045FD28460AF09DFF28460AF091FF029B65
:1020A0009F0642BF039B43F020030393039BC4F8A6
:1020B0004034286801F02AFD000705D528460AF0BB
:1020C0007BFF2B6808225A61286801F01FFD8101FF
:1020D00012D5286801F07FFE06F5A06300904FF04E
:1020E0000009019328274FF00208AB6828684B4588
:1020F0005AD84FF000734361286801F007FDC3060A
:1021000038D52C68A36923F01003A361266AC6F3AF
:102110004342022A29D1C6F30A18B8F1000F24D08D
:1021200006F00F06282707FB0657796CE9B14246EF
:10213000204601F0DDFC7B6C43447B64FB6C434434
:10214000FB6404F5A0647301E2181169B64A0A4001
:102150005AB1E25822F0804242F00042E25097F831
:10216000503083F0010387F850302A68936943F0B8
:102170001003936105B0BDE8F08FEB68012B04BF3D
:102180004EF66022C4F8042483E728460AF025FFAF
:10219000D4F840342A6823F02E03C4F840349369FD
:1021A00043F0005393617AE7009A09F00F0322FA93
:1021B00003F3DA0740F185804FEA4913019A5FFA89
:1021C00089F6D1584FEA461B00F5A06A0BEB0A04CA
:1021D00011F4004FA16800F0EF804B0713D50421E4
:1021E000A160E16841F00201E160A168880539D58C
:1021F000E368286843F00203E360314601F0F0FD34
:102200004FF40073B8E0A168890602D52021A160CF
:10221000EBE7A1680A0711D5E16841F00201E1602E
:1022200007FB06514FF0050C81F85DC01021A1603D
:102230000821A160314601F0D3FDD6E7A1684B0526
:10224000D3D5E16841F00201E160314601F0C8FDFB
:102250001021A16007FB0651082081F85D004FF4B2
:102260008061D4E7A168C9073DD5296949B107FB59
:10227000065C2069DCF84810C0F31200091ACCF89B
:102280004C1007FB065C01220021CCF858108CF89A
:102290005D20A2609CF83F1011F0FD0F14D1E3689F
:1022A000286843F00203E360314601F099FD1023F2
:1022B000A36007FB065696F8503083F0010386F8BA
:1022C000503009F1010910E70329F2D15BF80A1037
:1022D00041F000514BF80A1028468CF85C2031463A
:1022E0000AF076FEE5E7A1688A0730D5E16807FBCA
:1022F000065021F00201E16090F85D10012902D141
:1023000080F85C1017E10529FAD0062901D00829C8
:102310000FD107FB0651886D01300328886581BF06
:1023200000208865042081F85C0098BF81F85C80FB
:1023300004E0032940F0FF8080F85C805BF80A101D
:1023400021F0804141F000414BF80A10F3E0A16810
:10235000286811F0800111D0E36807FB065243F0B2
:102360000203E360936D01339365062382F85D30C9
:10237000314601F035FD8023A360A2E7A368DB06A8
:102380009FD507FB065292F83F30032B09D1916588
:10239000E36843F00203E360314601F021FD1023BE
:1023A000EAE713F0FD03FAD193652B69002BF6D110
:1023B000032382F85D30EBE711F0040C06D0042310
:1023C000A360E36843F00203E3607AE7A16811F0D9
:1023D000200114D02023A36007FB065393F83D206F
:1023E000012A7FF46EAF83F83DC083F85C80E36818
:1023F00043F00203E360314601F0F2FC61E7A368B9
:102400005A0613D507FB0653042283F85D200122E8
:1024100083F83D209965E36843F00203E3603146A9
:1024200001F0DEFC4023A7E70000F81FA16811F4CB
:10243000007105D0E36843F00203E3603146DDE656
:10244000A368DB070FD5E26807FB065A42F00202D9
:10245000CAF85810E260314601F0C2FC0122A260C5
:102460008AF85D202DE7A16809070ED50823A3602F
:10247000E36843F00203E360314601F0B1FC07FB7F
:102480000656052386F85D301BE7A168CA0614D5F9
:1024900007FB065300229A65032283F85D2093F818
:1024A0003D20002A7FF474AF93F83C20002A7FF48B
:1024B0006FAF012283F83D206AE7A1680B060CD5B7
:1024C000E36843F00203E360314607FB065601F080
:1024D00087FC062386F85D304DE7A16849050FD5D6
:1024E000E36843F00203E360314601F079FC102316
:1024F000A3604FF48063A36007FB06560823C1E77F
:10250000A1688A077FF5DDAEE16807FB065021F080
:102510000201E16090F85D10012917D190F83F3079
:1025200080F85C10023B012B05D890F8513083F005
:10253000010380F8513007FB0653C4F8088093F874
:102540005C20314628460AF043FDBAE6032902D151
:1025500080F85C80EFE70429FAD005293FF4D0AE7B
:1025600006293FF4D6AE0829E5D1D2E638B590F871
:10257000B832012B04460DD0012580F8B85200680E
:1025800001F05CFA2946206801F002FB002084F883
:10259000B80238BD0220FCE790F8B832012B10B524
:1025A000044609D0012380F8B832006801F028FD04
:1025B000002084F8B80210BD0220FCE7006801F09A
:1025C000C9BA282303FB010191F85C007047282356
:1025D00003FB0101C86C7047006801F074BB006820
:1025E00001F066BB70B5044608B9012070BD90F8D3
:1025F0003D3003F0FF021BB980F83C200AF030FAAE
:102600002268242384F83D30136823F0010313600B
:1026100000F0DAFA6368414A93424DD8404A90424A
:10262000E3D922683F495568B0FBF1F125F03F0539
:102630000D435560156A25F03F05013129431162AC
:10264000D169364D21F44F41AB4221F0FF0100F139
:10265000FF3048D85B00B0FBF3F0431CC3F30B031F
:10266000042B38BF04230B43D361D4E9073011682E
:10267000034321F0C0010B4313609168D4E90303C5
:1026800021F40341034321F0FF010B439360D4E99C
:102690000530D168034321F0FF010B43D360136879
:1026A00043F00103136000202023206484F83D30B0
:1026B000206384F83E0099E71B4A904295D922682E
:1026C000184E5568B0FBF6F625F03F0535435560CA
:1026D000156A4FF49671714325F03F054FF47A76F1
:1026E000B1FBF6F1A9E7A56855B903EB4303B0FBCD
:1026F000F3F0431CC3F30B036BB143F40043B2E7A5
:1027000019256B43B0FBF3F0431CC3F30B0313B168
:1027100043F44043A7E70123A5E700BFA0860100DB
:102720007F841E0040420F00FF083D002DE9F34169
:10273000044618B9012002B0BDE8F0810368DD0746
:1027400010D42368980758D423681A0700F19A8098
:1027500023685B0700F1B880A269002A40F0198164
:102760000020E8E7A64B9A6802F00C02042A07D082
:102770009A6802F00C02082A0AD15B68590207D550
:102780009F4B1B689A03DCD56368002BD9D1D1E736
:1027900063689B4DB3F5803F11D12B6843F48033C0
:1027A0002B60FEF7E5FB964D06462B689B03C8D4CD
:1027B000FEF7DEFB801B6428F7D90320BBE7B3F5E7
:1027C000A02F04D12B6843F480232B60E5E72A680F
:1027D00022F480322A602A6822F480222A60002BA8
:1027E000DFD1FEF7C5FB06462B689F03A9D5FEF790
:1027F000BFFB801B6428F7D9DFE7814B9A6812F092
:102800000C0F07D09A6802F00C02082A11D15B68FD
:102810005E020ED47A4B1A68950702D5E268012A47
:1028200088D11A68216922F0F80242EAC1021A60CE
:102830008AE7E268734BB2B101221A60FEF798FB97
:102840006F4D06462B68980707D52B68226923F041
:10285000F80343EAC2032B6076E7FEF789FB801B8F
:102860000228EFD9A9E71A60FEF782FB644D0646FD
:102870002B6899077FF568AFFEF77AFB801B02286B
:10288000F6D99AE76269604B7AB101221A60FEF7C5
:102890006FFB5B4D06466B6F9F073FF559AFFEF729
:1028A00067FB801B0228F6D987E71A60FEF760FBFA
:1028B000534D06466B6F98077FF54AAFFEF758FBFE
:1028C000801B0228F6D978E74D4B1A6C12F0805223
:1028D00028D101921A6C42F080521A641B6C03F0EA
:1028E00080530193019B0126484D2B68D9051BD5C8
:1028F000A368434D012B27D12B6F43F001032B67B6
:10290000FEF736FB3E4D074641F288382B6F9B079A
:1029100039D5002E3FF420AF394A136C23F0805391
:10292000136419E70026DFE72B6843F480732B60FC
:10293000FEF71EFB07462B68DA05D9D4FEF718FB15
:10294000C01B0228F7D938E7052B04D12B6F43F0C1
:1029500004032B67D0E72A6F22F001022A672A6F4F
:1029600022F004022A67002BCAD1FEF701FB41F2D4
:10297000883807462B6F9807CBD5FEF7F9FAC01BAE
:102980004045F7D919E7FEF7F3FAC01B4045BDD91A
:1029900013E71B4DAB6803F00C03082B3FF4CAAEE2
:1029A0001B4E0023022A336034D1FEF7E1FA0746BA
:1029B0002B6899011ED4D4E907321343626A43EAB3
:1029C0008213E26A43EA0263A26A0D4C5208013A9A
:1029D00043EA02436B6001233360FEF7C9FA054600
:1029E00023689A013FF5BCAEFEF7C2FA401B0228ED
:1029F000F6D9E2E6FEF7BCFAC01B0228D8D9DCE61D
:102A00000038024000004742800E474200700040FC
:102A100060004742FEF7ACFA04462B689B017FF545
:102A20009FAEFEF7A5FA001B0228F6D9C5E600BF47
:102A3000134908B58B6803F00C03042B03D0082B53
:102A400003D0104800E0104808BD4A684B68496848
:102A500013F4800314BF0C480A48C1F3881118BF4F
:102A6000002302F03F02A1FB0001FEF7B7F8044B80
:102A70005B68C3F3014301335B00B0FBF3F0E3E7B2
:102A8000003802400024F40000127A002DE9F041E1
:102A90000D46044610B90120BDE8F081434B1A6889
:102AA00002F00F028A4227D321688F072CD4C8076F
:102AB0003FD43E4B1A6802F00F02AA4264D8226843
:102AC00051076AD4130707D5394A2169936823F45B
:102AD000604343EAC1039360FFF7AAFF344B354AD2
:102AE0009B68C3F30313D35CD840334B18600020BA
:102AF000FEF7F4F90020CFE7CAB21A701B6803F0A2
:102B00000F038B42C7D1CFE7294B11F0040F1EBF33
:102B10009A6842F4E0529A600E0742BF9A6842F403
:102B200060429A609A68A06822F0F00202439A60BC
:102B3000BDE762681E4B012A1CD11B6813F4003FDD
:102B4000A9D01B4EB36823F003031343B360FEF711
:102B50000FFA41F288380746B368626803F00C0345
:102B6000B3EB820FA5D0FEF703FAC01B4045F3D9A3
:102B7000032091E7911E01291B6802D813F0007F02
:102B8000DEE713F0020FDBE7EAB21A701B6803F00E
:102B90000F03AB427FF47FAF91E70549E0688B6894
:102BA00023F4E05303438B608CE700BF003C0240FA
:102BB000003802403B270108B4050020014B18688B
:102BC000704700BFB4050020044B054A9B68C3F35F
:102BD0008223D35C034A1068D84070470038024013
:102BE0004B270108B4050020044B054A9B68C3F33A
:102BF0004233D35C034A1068D84070470038024023
:102C00004B270108B405002010B5044690B1437964
:102C100003F0FF0213B9027109F05AFF0223226880
:102C20006371136843F00403136000200123637190
:102C3000A06010BD0120FCE7F8B50379012B044624
:102C40000E4625D063790120834220711DD10223D5
:102C50006371FEF78DF907462268556815F0010586
:102C600008D09368E3603360012363710020002380
:102C7000237109E0FEF77CF9C01B0228ECD9012082
:102C8000022360712571A360F8BD0423A360EEE701
:102C90000220F9E7036A23F001030362036A70B5B7
:102CA000446882690D6822F073022A438D6823F01C
:102CB00002032B430E4DA84202D00E4EB04210D15B
:102CC000CE6823F008033343A84223F0040302D064
:102CD000084DA84205D1D1E9055624F44074354386
:102CE0002C43446082614A684263036270BD00BF46
:102CF0000000014000040140036A23F48073036272
:102D0000036A70B54468C2690D6822F073022A43F1
:102D10008D6823F4007343EA0523114DA84203D0C4
:102D200005F58065A84214D1CD6823F4006343EA19
:102D300005230B4DA84223F4806303D005F580657D
:102D4000A84206D1D1E9055624F44054354344EA5B
:102D500005144460C2614A68C263036270BD00BF6B
:102D600000000140036A23F480530362036A30B514
:102D70004468C2690D6822F4E64242EA05228D6881
:102D800023F4005343EA0533084DA84203D005F568
:102D90008065A84204D14D6924F4804444EA851436
:102DA0004460C2614A680264036230BD00000140B1
:102DB000022380F83D3003689A6802F00702062A71
:102DC0001EBF1A6842F001021A60012380F83D30EC
:102DD000002070470368DA6842F00102DA609A68FE
:102DE00002F00702062A1EBF1A6842F001021A60AA
:102DF00000207047704770477047704770477047B2
:102E000003681A69910710B504460ED5DA6892076F
:102E10000BD56FF002021A619B6901229B070277B2
:102E200077D0FFF7EAFF0023237723681A6950075A
:102E300010D5DA6851070DD56FF004021A619B694D
:102E4000022213F4407F2277204668D0FFF7D5FF97
:102E50000023237723681A6912070FD5DA68100751
:102E60000CD56FF008021A61DB69042299072277FA
:102E700020465AD0FFF7C1FF0023237723681A6941
:102E8000D20610D5DA68D0060DD56FF010021A619F
:102E9000DB69082213F4407F227720464BD0FFF7EE
:102EA000ACFF0023237723681A69D10708D5DA68B5
:102EB000D20705D56FF001021A612046FFF79BFF8C
:102EC00023681A69100608D5DA68110605D56FF06F
:102ED00080021A61204600F054FA23681A695206EB
:102EE00008D5DA68500605D56FF040021A61204611
:102EF000FFF785FF23681A69910622D5DA689206E2
:102F00001FD56FF0200220461A61BDE8104000F086
:102F100037BAFFF771FF2046FFF770FF83E7FFF72F
:102F20006BFF2046FFF76AFF92E7FFF765FF204639
:102F3000FFF764FFA0E7FFF75FFF2046FFF75EFFA4
:102F4000AFE710BD304A0368904212D0B0F1804F15
:102F50000FD0A2F57C4290420BD002F580629042E5
:102F600007D002F58062904203D002F57842904289
:102F700019D14A6823F070031343234A904229D0A1
:102F8000B0F1804F26D0A2F57C42904222D002F5CB
:102F9000806290421ED002F5806290421AD002F503
:102FA0007842904216D0194A904213D002F58062BE
:102FB00090420FD002F5806290420BD0A2F5983279
:102FC000904207D002F58062904203D002F5806201
:102FD000904203D1CA6823F4407313434A6923F033
:102FE0008003134303608B68C3620B688362064BE4
:102FF000984203D003F58063984201D10B690363C3
:1030000001234361704700BF0000014000400140C0
:1030100010B50446A0B190F83D3003F0FF021BB993
:1030200080F83C2009F06CFD022384F83D302068D4
:10303000211DFFF787FF012384F83D30002010BDDC
:103040000120FCE710B50446A0B190F83D3003F034
:10305000FF021BB980F83C20FFF7CCFE022384F866
:103060003D302068211DFFF76DFF012384F83D30BE
:10307000002010BD0120FCE7036A23F01003036267
:10308000036A70B5446882690D6822F4E64242EA38
:1030900005228D6823F0200343EA0513104DA84252
:1030A00003D005F58065A84214D1CD6823F08003D4
:1030B00043EA05130A4DA84223F0400303D005F567
:1030C0008065A84206D1D1E9055624F44064354311
:1030D00044EA8504446082614A688263036270BD89
:1030E0000000014038B590F83C30012B04464FF009
:1030F000020025D0012384F83C3084F83D000C2ADE
:1031000018D8DFE802F0071717171E1717172F1721
:10311000171740002068FFF7BDFD236809699A6909
:1031200042F008029A619A6922F004029A619A694F
:103130000A439A610123002084F83D3084F83C0062
:1031400038BD2068FFF798FF236809699A6942F43F
:1031500000629A619A6922F480629A619A6942EAED
:103160000122E6E72068FFF7C7FD23680969DA69ED
:1031700042F00802DA61DA6922F00402DA61DA69FF
:103180000A43DA61D6E72068FFF7ECFD2368096996
:10319000DA6942F40062DA61DA6922F48062DA61A3
:1031A000DA6942EA0122ECE710B584680A4324F4A4
:1031B0007F4442EA03232343836010BD90F83C30F0
:1031C000012B70B504464FF0020019D084F83D0081
:1031D0002068012384F83C30836823F47F4323F084
:1031E000770383600B68402B65D015D8102B0CD06B
:1031F00007D853B10123002084F83D3084F83C0007
:1032000070BD202B01D0302BF4D1826843F007032E
:1032100022F0700213431AE0602B34D019D8502BDF
:10322000E8D14A68CE68016A056A25F001050562A1
:10323000836921F00A0123F0F00343EA06130A43ED
:1032400083610262836823F0700343F05703836055
:10325000D0E7702B0CD0B3F5005FCBD1CB68D1E9B0
:103260000121FFF7A1FF2268936843F4804308E03F
:10327000CB68D1E90121FFF797FF2268936843F0FB
:1032800077039360B6E74D68CE68016A21F01001BC
:1032900001628269036A22F4704223F0A00343EAC8
:1032A000051342EA063282610362836823F07003E9
:1032B00043F06703CBE74A68CE68016A056A25F0E8
:1032C00001050562836921F00A0123F0F00343EA56
:1032D00006130A4383610262836823F0700343F09C
:1032E0004703B4E7036A01F01F0110B501248C40C5
:1032F00023EA04030362036A8A401A43026210BD90
:1033000010B5044601220068FFF7ECFF23680B4A62
:10331000934203D002F58062934203D15A6C42F487
:1033200000425A649A6802F00702062A1EBF1A6811
:1033300042F001021A60002010BD00BF00000140F1
:10334000FFF7DEBF90F83C30012B30B54FF00203A1
:1033500014D0046880F83D306268A3680D6849683D
:1033600022F0700223F080030B432A436260A360C3
:10337000012380F83D30002380F83C30184630BDF2
:10338000704770470368DA6822F49072DA605A690D
:1033900022F001025A61202380F83A307047000081
:1033A0002DE9F8430368C1681A69044622F44052C3
:1033B0000A431A612569A268D968C0692A43656908
:1033C00021F416412A4321F00C0102430A43DA603A
:1033D0005A69A16922F440720A43B0F5004F5A615C
:1033E0007A4A7BD1934203D002F58062934244D162
:1033F000FFF7FAFB676819254FF0640805FB00F337
:103400007F00B3FBF7F3B3FBF8F31F01FFF7ECFB0F
:10341000636868435B00B0FBF3F6FFF7E5FB6368A6
:1034200068435B00B0FBF3F3B3FBF8F308FB1363F3
:10343000DB003233B3FBF8F35B0003F4F876FFF7FD
:10344000D3FB626868435200B0FBF2F9FFF7CCFB94
:103450006368226868435B00B0FBF3F3B3FBF8F3E7
:1034600008FB1393DB003233B3FBF8F303F00703DD
:103470003B4433449360BDE8F883FFF7A5FB6768DE
:1034800019254FF0640805FB00F37F00B3FBF7F349
:10349000B3FBF8F31F01FFF797FB636868435B001A
:1034A000B0FBF3F6FFF790FB636868435B00B0FB8B
:1034B000F3F3B3FBF8F308FB1363DB003233B3FB26
:1034C000F8F35B0003F4F876FFF77EFB626868436D
:1034D0005200B0FBF2F9FFF777FBB9E7934202D055
:1034E0003B4A934241D1FFF77FFB676819254FF0B4
:1034F000640805FB00F3BF00B3FBF7F3B3FBF8F37D
:103500001F01FFF771FB636868439B00B0FBF3F694
:10351000FFF76AFB636868439B00B0FBF3F3B3FB00
:10352000F8F308FB13631B013233B3FBF8F303F02A
:10353000F006FFF759FB626868439200B0FBF2F9AE
:10354000FFF752FB6368226868439B00B0FBF3F30C
:10355000B3FBF8F308FB13931B013233B3FBF8F30F
:1035600003F00F0333433B4484E7FFF72DFB676809
:1035700019254FF0640805FB00F3BF00B3FBF7F318
:10358000B3FBF8F31F01FFF71FFB636868439B0061
:10359000B0FBF3F6FFF718FB636868439B00B0FBD2
:1035A000F3F3B3FBF8F308FB13631B013233B3FBF4
:1035B000F8F303F0F006FFF707FB62686843920038
:1035C000B0FBF2F9FFF700FBBCE700BF00100140C1
:1035D00000140140F8B504460E4617461D46216802
:1035E0000B6836EA030301D1002014E06B1CF7D00E
:1035F00095B92368DA6822F4D072DA605A6922F049
:1036000001025A61202384F8393084F83A300023CB
:1036100084F838300320F8BDFDF7AAFCC01B8542B2
:10362000DDD2E6E710B5044640B390F8393003F038
:10363000FF021BB980F8382009F0BEFA2268242363
:1036400084F83930D36823F40053D3602046FFF761
:10365000A7FE23681A6922F490421A615A6922F07F
:103660002A025A61DA6842F40052DA60002020230C
:10367000E06384F8393084F83A3010BD0120FCE76B
:103680002DE9F0411F4690F83930202B04460D46B5
:1036900090464DD1002949D0002A47D090F83830C3
:1036A000012B45D0012380F838300023C363212348
:1036B00080F83930FDF75CFCA4F824800646A4F8B5
:1036C0002680E38C9BB263B93B46324640212046BC
:1036D000FFF780FFA8B9202384F8393084F8380038
:1036E00010E0E38C013B9BB2E384A368B3F5805FF9
:1036F00032463B464FF0800120460ED1FFF76AFF6D
:1037000010B10320BDE8F0812B882268C3F30803C1
:103710005360236943B90235D3E7FFF75BFF002805
:10372000EFD123682A785A600135CAE70120E9E71A
:103730000220E7E790F83930202B18D1A9B1A2B1C7
:1037400090F83830012B12D0C284016282840023A9
:103750000168C363212280F83920CA6880F83830B4
:1037600042F08002CA60184670470120704702206C
:10377000704790F83A30202B20D1E9B1E2B190F8AF
:103780003830012B1AD0C285828500232222C363E0
:1037900080F83A2002688162D16880F8383041F4BC
:1037A0008071D160516941F001015161D16841F0EE
:1037B0002001D160184670470120704702207047F1
:1037C000704790F83A30222B10B533D181680469E4
:1037D000836A0268B1F5805F23D15268ECB9C2F305
:1037E000080223F8022B8362C48D013CA4B2C48575
:1037F0008CB90368DA6822F02002DA60DA6822F411
:103800008072DA605A6922F001025A61202380F83E
:103810003A3008F013FD00200DE0D2B223F8012B5E
:10382000E1E7591C526881620CB91A70DCE702F0BA
:103830007F02FAE7022010BD7047000003681A6893
:10384000D96870B5160704465D6907D1960658D544
:103850008D0656D5BDE87040FFF7B3BF15F00105E2
:1038600002D111F4907F4CD0D30705D5CE0542BFCD
:10387000E36B43F00103E363500704D51DB1E36B31
:1038800043F00203E363930704D51DB1E36B43F0F8
:103890000403E363160704D51DB1E36B43F008038B
:1038A000E363E36B43B3950604D5880602D520464F
:1038B000FFF787FF23685D69E26B1107204602D49A
:1038C00015F0400519D0FFF75DFD23685A695206CF
:1038D0000FD55A69606B22F040025A6148B1264BFD
:1038E0000365FDF7E9FD38B1606BBDE87040036D1D
:1038F00018472046FFF7A0FF70BDFFF79DFFE56367
:10390000FAE7160628D50D0626D594F83920212A7F
:10391000F2D1A168226AB1F5805F18D11188C1F394
:1039200008015960216981B902322262E28C013AB0
:1039300092B2E284002ADFD1DA6822F08002DA60F3
:10394000DA6842F04002DA60D6E70132EDE7511C56
:10395000216212785A60E9E75006CDD54A06CBD5E8
:10396000DA6822F04002DA60202384F839302046F9
:10397000FFF726FFC0E700BF7D39000808B5806B60
:103980000023C385C384FFF757FF08BD0A4B013BE3
:103990000FD00269002AFADA0369074A43F00103EB
:1039A0000361013A05D0036913F00103F9D1184608
:1039B00070470320704700BF410D030084B038B545
:1039C00005AD85E80E000A9B012B044625D1836BCB
:1039D00023F480338363C36823F4840323F0400318
:1039E000C360C36823F44013C360119B012B02BF63
:1039F000C36843F48013C360FFF7C8FF089B012B23
:103A000007D1A36843F00603A360A36843F0200333
:103A1000A360BDE8384004B07047C36843F040037A
:103A2000C360FFF7B3FF0E9B23B9A36B43F480334E
:103A3000A363E3E7A36B23F48033F9E7836843F0E0
:103A40000103836000207047836823F001038360D3
:103A50000020704708B5C368012923F0C043C36044
:103A600008D1C36843F00053C3603220FDF786FAE3
:103A7000002008BD19B9C36843F08043F4E7012072
:103A8000F7E70000890141F02001064A0161013A8F
:103A900005D0036913F02003F9D1184670470320BD
:103AA000704700BF410D03001023064A0361013A2D
:103AB00005D0036913F01003F9D1184670470320AD
:103AC000704700BF410D030010B59DF808404CB988
:103AD000033300EB02309B0800F5805001EB8303B9
:103AE000994201D1002010BD51F8042B0260F7E784
:103AF0000332920801EB820200F58050914201D11D
:103B000008467047036841F8043BF7E7426980695B
:103B100010407047406900F001007047D0F8003451
:103B200023F0030310B5C0F80034D0F8004401F0CE
:103B300003032343012900F58062C0F8003404D157
:103B40004BF680335360002010BD0229FBD141F2B7
:103B50007073F7E737B500250195D0F8403401932D
:103B6000019B23F02E030193019B43F480730446D1
:103B7000C0F840346420FDF701FA019B23F4807300
:103B8000C4F840340A20FDF7F9F9284603B030BDE7
:103B900082B000230193D0F840340193019B23F0BD
:103BA0002E030193019BDA0406D4012902BF019B75
:103BB00043F48053C0F84034019BDB0405D521B9A0
:103BC000019B23F48053C0F84034002002B07047BA
:103BD00084B038B5044605A880E80E000023C4F878
:103BE000003EA36B43F40013A363A36B23F40023F1
:103BF000A363A36B23F48023A363E36BDA053FD5B0
:103C0000079B032BD4F800343CD143F00403C4F8E1
:103C1000003410212046FFF735FF2046FFF744FF10
:103C20000023069904F5A0624FF0FF301D4699422B
:103C30002BD101212046FFF7ABFFC820FDF79EF9ED
:103C40000023A3614FF0FF336361E36BDB0521D5F4
:103C50004FF40073636203F18073A362114BC4F8E5
:103C60000031089B1BB9A36943F01003A361A2694B
:103C70000D4B1343A361BDE83840002004B07047EA
:103C8000D4F8003423F00403C1E790600133D56019
:103C90002032CCE78023636203F5C003A362034BA9
:103CA000DDE700BF0003E000080020A3E0004000C3
:103CB00082B000230193D0F8403401930198C0F3FF
:103CC000414002B0704700F58060806880B2704764
:103CD0002DE9F04100EB411707F5A0649DF81C6049
:103CE00005464FF0FF30A0604FFA82F805F5806E70
:103CF00001F00F0C032E6CD8DFE806F00261024CD5
:103D000040F29D41B8F1000FE16003DAE16841F44F
:103D1000807105E0E96BC90542D5E16841F06001B9
:103D2000E1600020DEF81840012101FA0CF1214386
:103D3000CEF81810A969B8F1000F41F00071A9611F
:103D4000ACBF00244FF40044BDF820509DF818107B
:103D50009B0503F0FE53C5F30A05D20202F4F042BC
:103D60002B431343B20402F44022022943EA020324
:103D700014BF00214FF4003123430B43032EC7F837
:103D8000003505D1D7F8003543F00053C7F80035AA
:103D9000BDE8F08140F29D61B8F1000FE160B5DB54
:103DA000DEF81800012101FA0CF10143CEF81810D9
:103DB000A969002041F00071A9610446C4E740F2FE
:103DC0002521B8F1000FE160EADAE16841F4C07141
:103DD000A6E70120A6E700F58060406980B2704741
:103DE00000EB411101F5A062D1F8003513F4802FEA
:103DF000D1F8003543F08043C1F800351ED1C36AC5
:103E000013F47F0FD1F8003537D123F00043C1F808
:103E10000035D1F8003543F00043C1F80035D1F842
:103E2000003523F40043C1F8003540F2E933013B8B
:103E300002D011680029FADB00207047D0F8103456
:103E400013F47F0FD1F8003517D123F00043C1F8E8
:103E50000035D1F8003543F00043C1F80035D1F802
:103E6000003523F40043C1F8003540F2E933013B4B
:103E7000E2D011680029FADBDEE743F00043C1F825
:103E80000035D9E700EB4111064AC1F81025D1F8F9
:103E9000003523F0804343F00043C1F80035002093
:103EA000704700BF000008802DE9F341C36BDB05BC
:103EB000164604464A7817D50D79ADB94EB94B79F7
:103EC000012B11D11146FFF7DDFF002002B0BDE844
:103ED000F081012E08D100EB4213D3F80C0520F03D
:103EE0006000C3F80C054D710869002862D00B8989
:103EF00001381844B0FBF3F080B2B0F5807F03D9ED
:103F00001B020B614FF48070CF7817B10B894343CC
:103F10000B6191F80AC00B694FEA4C7C0CF0C04C65
:103F2000C3F3120804EB42154CEA080C4CEAC040FB
:103F3000C5F8100516B1C868C5F8140504F5806CFD
:103F4000DCF80800D5F800E52EF0005EC5F800E5C5
:103F5000C043D5F800E5400700F0005040EA0E00ED
:103F6000C5F800052548D5F800E5C0F800E0D0F810
:103F700000E02EF0804EC0F800E0D0F800E0DFB1A5
:103F80004EF4004EC0F800E0D0F800E04EF0004ED5
:103F9000C0F800E00068C5F80005002E95D1002F9C
:103FA00093D1002B91D0C879032813D8DFE800F013
:103FB000071A071A0120A7E72EF4004EE2E7E56A88
:103FC000D81CADB2C0F38F00854203D2A06940F087
:103FD0002000A061002000909BB2C9682046FFF736
:103FE00073FD72E7DCF81050D81CADB2C0F38F003F
:103FF0008542EFD2A06940F08060EAE7AC0700207C
:10400000836823F0010310B5102104468360FFF795
:1040100039FD2046FFF748FD04F5A06304F5E06094
:104020001A46116821F0802141F0804142F8201B9E
:104030008242F6D10020196821F4004141F040414C
:1040400019600130B0F57A7F02D819680029F8DBD1
:1040500020339A42EFD14FF0FF33C4F81434636138
:10406000A36843F00103A360002010BD0020704747
:1040700038B5D0F87833DC692178054639B100F0DD
:1040800009FE2178284600F021FE00232370217BC1
:1040900041B1284600F0FEFD217B284600F016FEC7
:1040A00000232373617B41B1284600F0F3FD617B5F
:1040B000284600F00BFE00236373D5F87833D869E7
:1040C00028B109F07DFCD5F878330022DA610020B0
:1040D00038BDF0B5022285B001231146054600F037
:1040E000A8F9FF28064602D1022005B0F0BD01461E
:1040F000284600F095F95020D5F8787309F058FC5F
:104100001A2303FB0656F86196F84A331F0642BF8E
:104110004370B6F84C33438104464178284600F09A
:10412000BEFD01462070608902900320019095F841
:104130001D0395F81C3362780090284600F09BFD23
:1041400000222178284609F000F800231A460A21A7
:10415000284600F06EF9FF28C6D01A2303FB005151
:1041600003FB005091F84A2390F85233B1F84C13F6
:10417000160653BFA273E27361832183190658BFE9
:10418000A373B0F85423A17B48BFE37328464CBF08
:104190006283228300F083FDE17B6073284600F098
:1041A0007EFD2073208B0290022695F81D0395F862
:1041B0001C33A27B617B01960090284600F05BFDDA
:1041C000608B95F81C33E27B217BCDE9016095F88B
:1041D0001D0300900026284600F04DFD3246617B0D
:1041E00084F84C60284608F0B0FF3246217B284610
:1041F00008F0ABFF304678E738B5D0F87833D969A6
:1042000042F2A1124FF4E023C0E904234031072217
:10421000044600F0C3FA054620B9D4F8C833022199
:1042200020469847284638BD704770477047D0F8F9
:10423000783373B5DC6994F84C300546042B13D8F9
:10424000DFE803F0A60315389D0042F221004FF489
:10425000E023A16C0722C5E90403284600F09EFA7A
:1042600020BB022384F84C30012002B070BD42F222
:10427000A1124FF4E023C0E9042304F14001072216
:1042800000F08CFA90B9D4E9113123F07F424B68E9
:1042900084F84C0023F07F439A42E5D1226C0B68EE
:1042A0009A42E1D12846FFF7C1FFDDE70128DBD0C4
:1042B0000423D7E794F84D00012821D002282ED0FE
:1042C000D5F87833DE6996F84E30032B46D0042BB0
:1042D000CAD1317B284608F027FF0128C4D1317BA1
:1042E000284608F0DDFEB36A984241D0728B9042B6
:1042F0003ED91B1AB362336A18443062032334E098
:10430000666A228B637BE1690090964298BFB2B2E5
:10431000284600F089FC022384F84D30D0E7617B09
:10432000284608F001FF012815D1636A228B9342C9
:1043300083BF9B1A6362E36900238ABF9B18636291
:10434000E361636A0BB10123E6E784F84D30284648
:10435000FFF76AFFB4E70228B2D1F4E7337B728B30
:10436000316A284600F077FC042386F84E307BE75C
:10437000002386F84E302846FFF757FF74E70021E8
:1043800000F00DFC00287FF46FAF84F84C006BE761
:1043900000206AE700F5607300F56F72002143F8B2
:1043A000041B9342FBD100F58E7200F54771002388
:1043B00002F8013B9142FBD10122037043708270ED
:1043C000C0F8BC330276437640224FF4807382718A
:1043D000A0F81C330020704738B50D46044680B164
:1043E000002380F8C023C0F87833C0F87C33FFF78F
:1043F000D1FF0DB1C4F8C853204608F0F3FD0020EA
:1044000038BD0220FCE749B1D0F87C3333B9012232
:10441000C0F87C23C0F87413184670470220704718
:1044200090F838338B4286BF80F82013002002209A
:10443000704770B5002490F843638E42E5B201D016
:10444000FF290BD190F84463964201D0FF2A05D191
:1044500090F845639E4204D0FF2B02D01A3014B16D
:10446000FF25284670BD0124E5E710B5044608F095
:10447000DFFD0121204608F05BFE002010BD30B5B5
:1044800087B002238DF8173090F81F33044633B9F4
:10449000027822B10278032A1CBF0322027022781C
:1044A0000B2A18D8DFE812F00C001A001F002201B6
:1044B00017004F000801C800D100DB00E800190117
:1044C00094F81E333BB10123C820237008F04CFE42
:1044D000204608F0D7FD002007B030BD012BFAD1EF
:1044E00002232370F7E7642008F03EFE204608F020
:1044F000BBFD0523237084F81D030021204600F036
:10450000CEFB80216071204600F0C9FBA27994F8AF
:104510001C33207101460292002594F81D2300925D
:1045200001958022204600F0A6FBA27994F81C3366
:104530006179CDE9015294F81D23009220462A4664
:1045400000F099FBC7E76378072BC4D8DFE803F0D6
:1045500004151E3038414F5D0821204600F0FCF95B
:1045600005460028B7D1012394F8292363702179E7
:1045700094F81C33A2710292CFE71221204600F07A
:10458000EBF90028A7D102236370A4E7012120469C
:1045900000F0DEFA054600289DD1022008F0E4FD77
:1045A00003220123627084F81C332179A279E2E7A7
:1045B0000921204600F018FA00288CD10423E3E7F3
:1045C000B4F83613204600F00FFA002883D10523F3
:1045D000DAE794F8301341B1FF2304F58E722046D8
:1045E00000F08FFA00287FF476AF0623CCE794F82A
:1045F000311341B1FF2304F58E72204600F081FA99
:1046000000287FF468AF0723BEE794F8321341B95E
:10461000002384F8203394F83333012B0AD1082384
:104620005FE7FF2304F58E72204600F06AFA002847
:10463000EED050E7072354E7D4F8C833002B3FF4FB
:104640004AAF012120469847E9E794F839132046FC
:1046500000F08BFA00287FF43EAF092341E794F87D
:104660003B339B0606D50121204600F08BFA00283B
:104670007FF431AF0A2334E7D4F87C33002B3FF4C6
:104680002AAF0023C4F87833D4F8743394F8432362
:104690001979914208BFC4F87833D4F87833D3B18C
:1046A0009B6820469847B0B9062323700321D4F8AD
:1046B000C833204698470EE7D4F878335BB11B69BE
:1046C000204698478DF817009DF81730002B7FF48F
:1046D00002AF0B2305E70D2303E7D4F87833002B53
:1046E0003FF4F9AE5B6920469847F4E62046FFF7B1
:1046F00051FED4F87833002B3FF4EDAEDB68204652
:1047000098470023C4F87833E5E6C0F8BC13704737
:10471000D0F8BC230132C0F8BC2302780B2A04D1A4
:10472000D0F878330BB19B6918477047012380F8A4
:104730001F337047002380F81F337047027808B595
:104740004AB9D0F8C833012280F81E230BB10421E6
:104750009847002008BD90F81F23012A04BF0222B9
:104760000270F6E710B5044608F070FC2179204687
:1047700000F0ACFA6179204600F0A8FA002384F832
:104780001E33D4F8C83313B105212046984720467C
:1047900008F04EFC03232370002010BD13B504461F
:1047A0008078012803D0022808D0012004E00223E9
:1047B000A160A2812076A37002B010BD237E013BD0
:1047C00001210A2BF1D8DFE803F0060F2C37414D09
:1047D0006570818D9600627904F11001204600F029
:1047E000EBF902232376E0E76179204608F09CFC90
:1047F000012810D1E28A94F9103032B1002B02DA8C
:1048000003232376D8E70523ECE7002B01DA0923FD
:10481000E8E70723E6E7042801D00228C5D10B23E7
:10482000E0E7D4F8BC33E381A2892379A16820466C
:1048300000F0EAF90423D5E72179204608F074FC5A
:104840000128E4D0052815D00428E7E76379009112
:10485000A289A168204600F0C0F9D4F8BC33E381F6
:104860000623BFE76179204608F05EFC0128D0D01E
:10487000052805D10123A3700023237603209BE79D
:104880000228C0D0042890D10B2323760123A370E3
:10489000022091E7002223791146204600F0B4F966
:1048A000D4F8BC33E38108239CE72179204608F043
:1048B0003BFC012804D101230020A37020767BE774
:1048C0000428ACD005287FF470AFD3E700226379C9
:1048D00000912046114600F080F9D4F8BC33E38102
:1048E0000A237FE76179204608F01EFC0128E2D008
:1048F0000228A9D18BE7637E0133DBB2022B6376FA
:1049000006D8204608F0A2FB01202076A07053E7CD
:10491000D4F8C83306212046984700236376B5E7CC
:1049200030B48478BDF80850012C10D161F07F04B8
:10493000047402F47F44B4F5407F42824FF00601D4
:104940000CBF40F20942002241748282C5822A468D
:10495000194630BCFFF722BF37B500F58E730D4600
:1049600000914FF4807200210446FFF7D9FFC8BBC5
:1049700094F81C3184F8223394F81D3184F82333E1
:10498000B4F81E31A4F8243394F8203184F8263387
:1049900094F8213184F8273394F8223184F82833AD
:1049A000082D94F8233184F829331BD9B4F8243125
:1049B000A4F82A33B4F82631A4F82C33B4F82831FB
:1049C000A4F82E3394F82A3184F8303394F82B313C
:1049D00084F8313394F82C3184F8323394F82D3143
:1049E00084F8333303B030BD2DE9F74300F11C04E4
:1049F0000E46009123464FF4007200210546FFF752
:104A00008FFF40BB2B7F85F834336B7F85F83533C0
:104A100095F8203085F8383395F8213085F839330A
:104A200095F8223085F83A3395F82330B5F81EC052
:104A300085F83B33092E95F82430A5F836C385F860
:104A40003C3308D92B46074609224FF01A0E022F95
:104A500001D0944502D803B0BDE8F08321780C441E
:104A60000A446178042992B2F1D1217883F83E1387
:104A7000617883F83F13A17883F84013E17883F8D5
:104A80004113217983F84213617983F84313A179A3
:104A900083F84413E17983F84513217A83F84613A8
:104AA0000EFB07F8002193F842638E4201D994452A
:104AB00002D801371A33CAE726783444324466787C
:104AC000052E92B2EFD14E1C08EBC601294494F892
:104AD000009081F8409394F8019081F8419394F804
:104AE000029081F8429394F8039081F84393B4F8CC
:104AF0000490A1F8449394F8069081F84693F1B29B
:104B0000D1E7F7B500F58E7514461F46009341F4C2
:104B100040722B4600210646FFF702FF78B996F84F
:104B20001D31032B0BD196F81C31023BBB4228BF31
:104B30003B469BB20246934203D80023237003B046
:104B4000F0BDA9180232897804F8011B92B2F2E78D
:104B50008378012B05D14FF4A063038200234182A7
:104B6000436100221146FFF719BE8378012B05D15E
:104B70004FF41063038200234182436100221146F7
:104B8000FFF70CBE8378012B05D14FF440730382ED
:104B900000234182436100221146FFF7FFBD837865
:104BA000012B05D14FF48173036100238182C382FD
:104BB00000221146FFF7F2BD30B5082385B000246E
:104BC0001546CDE90234CDE9004123462246294667
:104BD00008F090FA204605B030BD30B585B090F8A9
:104BE0001D5301911C46002D9DF8203018BF002355
:104BF000CDE902230123009300231A46214608F041
:104C000079FA002005B030BD30B5002485B01D46CE
:104C1000CDE902240122019100922346294608F0A1
:104C200069FA204605B030BD30B585B090F81D5307
:104C300001911C46002D9DF8203018BF0023CDE9BE
:104C400002230123009300220223214608F052FA96
:104C5000002005B030BD30B5002485B01D46CDE93B
:104C600002240122019100920223294608F042FA0F
:104C7000204605B030BD1FB5BDF8204002949DF818
:104C80001C4001949DF81840009408F00DFA002093
:104C900004B010BD08B508F01FFA002008BD30B5FB
:104CA000002300F5607454F8045B2D04DAB207D4D5
:104CB000E03341F4004140F8231092B2D0B230BD4D
:104CC00001330B2BEFD14FF6FF72F7E70A299FBF95
:104CD00000EB8100D0F88033C3F30E03C0F88033BB
:104CE0000020704773B500230D46044603745E49E7
:104CF0002846FBF76DFA20BB5C48FBF773FA0628E1
:104D000006461AD95A49594808F074FF701D08F030
:104D10004FFE237C5549206043F00403237408F0C0
:104D200085FF54495148351D08F080FF002328466F
:104D3000C4E90155E36002B070BD4F4B236002250A
:104D4000F4E710224D49284608F078FF40B94C4B53
:104D50004C4823600123437007F017F95625E5E717
:104D600005224949284608F069FF0646B0B9444B78
:104D70002360681D0A2201A909F01CF845B20198B8
:104D800003782BB10A223146013009F013F843B2FF
:104D90003C4803710123C5708370DDE73B49284619
:104DA000FBF716FA20B93A4B1D683A4B2360BDE772
:104DB00039492846FBF70CFA20B9384B2360384BA9
:104DC0001D68B3E737492846FBF702FA18B9364B96
:104DD0002360364BF4E736492846FBF7F9F930B93A
:104DE00008F08AFD206008F08BFD05469EE73149FA
:104DF0002846FBF7EDF980B908F0E2FC2E4B236062
:104E0000024628B92D49184608F010FF07258DE7FE
:104E10002B49184608F0CEFEE7E72A492846FBF75B
:104E2000D7F938B94FF400512748FCF7B0FF144BBD
:104E3000236093E725492846FBF7CAF910B94FF4D8
:104E40008051F1E722492846FBF7C2F910B94FF427
:104E50008041E9E71F492846FBF7BAF910B94FF43A
:104E60000041E1E71C4B69E7A4ED0008E48700205E
:104E7000A8ED0008ADED000859EE0008B4ED0008FB
:104E80005CEE0008588A0020C5ED0008CBED000854
:104E9000A805002028000020D8ED00088420010883
:104EA000D0250108E4ED0008540C01086C2001082D
:104EB000EFED0008FEED0008C81A002017EE00080C
:104EC0001FEE000828EE0008000C024035EE000836
:104ED00041EE00084BEE000856EE000810B5037CCA
:104EE0005B07044602D5006808F06AFD0023C4E9A8
:104EF000003310BD10B5044658B151B1FFF7F2FEB2
:104F000018B101236374002010BD60746FF00500B8
:104F1000FAE76FF00F00F7E7437C0BB1FFF7DEBF56
:104F20007047D0E90120101A70472DE9F04105467D
:104F300010880F461646984610B36C8EB5F8603050
:104F40006400A4B29C4228BF1C46844228BF044689
:104F5000434622463946284603F078FE431C0CD1CE
:104F6000B5F8603033B1B5F86230082B02D8640868
:104F7000012CEDD80023338002E00028FAD13480E0
:104F8000BDE8F08110B50446406918B1FFF7C4FFD1
:104F900000236361206A18B101F00EF90023236237
:104FA00010BD000038B50D460A4929600446FFF7D8
:104FB000A1FF68B1084929602046FFF79BFF38B17F
:104FC000064929602046FFF795FF08B100242C60B0
:104FD000204638BD8FF1000899F10008A2F10008C1
:104FE00070B50C46154642BB39B30121204601F08D
:104FF00037FD542000F07EFE064608B354222946B1
:1050000008F000FD0523A6F84E3031462046F46135
:1050100001F03EFD0C49204601F03EFD0B492046C3
:1050200001F068FD0A492046042201F081FD09498A
:10503000204601F049FD284670BD6FF00505FAE7EE
:105040004FF0FF35F7E700BF9D550008ED58000809
:10505000635500084B5500082DE9F04F85B0044614
:105060000846039101920D46FBF7BCF882460028E2
:1050700040D0461EAA5D2F2A3CD1874A95429046D1
:1050800001D1012836D13F2E28BF3F26BAF1010FAA
:1050900007D032462946804808F0A9FC002208F8CB
:1050A0000620DFF83C92DFF8F0B10027BAF1010FDB
:1050B00013D0D6F13F020ED059F83750029228464D
:1050C000FBF790F8029A824228BF0246294608EB75
:1050D000060008F08CFC5A4601E059F8372002928D
:1050E00011462046FFF706FF2546029A00285AD1AE
:1050F0000392BCB93F21039808F08BFD08B100234F
:105100000370039920462546FFF7F4FE20B103A95A
:105110002046FFF747FF054625B903A92046FFF7BC
:1051200041FF0546039F6561002D43D02B68A361B5
:105130006B68002B06DA594B59495A4840F6CF02A2
:1051400008F010FD6B7C002B32D02B68002B2FD188
:105150006362002384F82830019B83B163691B7C60
:10516000DA070CD5626A5049A06900F010FC30B132
:10517000A3690430C21A636AA0619B1A63626369FF
:1051800013B11B7CDB070AD4484B23630023C4E91B
:105190000D33A7B9464BE362464BE363E764002057
:1051A00005B0BDE8F08F0137052F7FF47FAFA1E791
:1051B0006B68CDE7A561656284F82850DFE73E495A
:1051C000384608F062FD28B3394BE3623F21384688
:1051D00008F01FFD064608B10023037038462E2153
:1051E00008F017FD002728BB002F50D0DFF8F490FF
:1051F0000546C846394659F835004FEAC50A00F059
:10520000E6FBE8B10135142DF4D10EB13F23337024
:105210002A4B1BE02A49384608F037FD08B1294BD4
:10522000D3E72949384608F030FD08B1274BCCE7D1
:10523000274BCAE7471C2E21384608F0EAFCD2E784
:105240000EB13F233370D044D8F80430E363636970
:10525000D3B11A7C02F00302012A15D004F14005F3
:105260005A680C21284600F0C9FB2846FAF7BAFF15
:10527000092809D84030174B221819889B782152E9
:105280009370154BA56363630023E36487E70EB156
:105290003F233370114BD9E7B0070020B3EF00086C
:1052A000EAEF000808F00008D5F2000830F0000826
:1052B00070F000088EF00008DEF0000872F10008BF
:1052C000E2F00008E6F0000801F1000805F100082E
:1052D00024F100089CED000861F1000836F1000897
:1052E000B4EE0008DCEE000870B5044631B1036D81
:1052F0000A89934234BF00239B1A0365204607F0B6
:105300002CFB08B100232365266D6EB9074D20469E
:1053100029463F222E7007F022FB324629462046BE
:10532000BDE87040FFF798BE002070BDB0070020B8
:1053300038B504460D4641B10B6D33B11749002312
:105340003F2228460B7007F00AFB0021204601F09F
:105350009FFB0021204601F09FFB0021204601F029
:10536000C9FB00221146204601F0E2FB0021204645
:1053700001F0AAFB2DB12846FFF704FE284600F0F5
:1053800099FB204601F0E2FE054620B104220449C3
:10539000204601F0CDFB284638BD00BFB0070020F5
:1053A0006355000838B5054648690C4628B92146BA
:1053B0002846FFF7BDFF002038BDFFF7B2FD0028EB
:1053C000F5DD044B0449054840F2834208F0CAFB6E
:1053D0000120F1E7B3EF00087CEF000808F00008B7
:1053E0002DE9F74F05460C4621B90026304603B09B
:1053F000BDE8F08FB1F84E30042B64D802AFB0F89E
:10540000606027F8026D4FF00008B4F84EA0002E3F
:105410004ED0BAF1040F4ED8BDF806302BB9B4F80F
:105420004E30042B4FD80226E0E704EB8A03D3F872
:105430002CB05846FAF7D6FEB4F84C101FFA80F993
:105440004846401AB042A8BF3046BAF1030FADF843
:10545000060059442AD0BAF1040F4FF0000301D0DE
:1054600043F002033A462846FFF75FFD08B1ADF866
:105470000680BDF80620B4F84C3013449BB2B61A2F
:105480009945A4F84C30B6B2BFD1B4F84E300133D0
:10549000A4F84E30B4F84E30042B04D804EB830249
:1054A000D26A002AF3D0A4F84C80AEE70123D7E7F4
:1054B000BAF1040FB3D9A369002BB0D12146284615
:1054C000FFF770FFABE7636A6BB1626A4FF6FE717C
:1054D0004FF6FF738A4298BF1346A169ADF80630B4
:1054E00041B9012310E021462846FFF75BFF002861
:1054F000EBD17AE760690028F3D043689A1A036811
:105500001344CB1A18BF01230DF106022846FFF7FA
:105510000CFDC0B9BDF80610A269636A0A445B1AA3
:10552000A26163620126676A002F7FF45FAF606942
:10553000FFF7F7FC00283FF759AF21462846FFF751
:10554000F7FE3E4652E70026EDE708B50B4601465A
:1055500028B1002280F828201846FFF741FF0020DC
:1055600008BD10B50C46014620B92046FFF7E0FE05
:10557000002010BD90F828300133DBB2042B80F8F6
:105580002830F2D04369002BF2D02046FFF728FFE5
:105590000028EDD0204603F0D1FEE9E72DE9F04FD9
:1055A0008DB00446089117461D464BB952B188B9D3
:1055B0000898398901F000FA384600F0FDFD01E055
:1055C000002AF5D121460898FFF7B2FE00200DB061
:1055D000BDE8F08F1189089801F0EEF9236D6BB1E9
:1055E00084F8285039462046FFF77EFE236D002BB5
:1055F000ECD121460898FFF7F3FEE7E76369002B3B
:1056000040F04981A369206A002B40F056810028B0
:1056100040F098802762384600F088FF206A0368CF
:10562000002B00F093800689A549A54D40F2FF3379
:105630009E4228BF1E463246002301F04BF8062E3C
:1056400040F2118132469F49284600F0A0F9002817
:1056500000F0098104229C49284608F0EFFA8146AF
:10566000002876D1EB1C0693069B984903F10108AC
:10567000A8EB050AA6EB0A0A1FFA8AFA5246404628
:1056800000F085F9834600287BD152468D4940467B
:1056900000F07DF98346B9F1000F67D1002800F0D2
:1056A000E2804FF0010A069B5B4580F0DC803246C9
:1056B0008749284600F06BF9002800F0D480069A4C
:1056C00000231370ABEB080292B2099208F8023083
:1056D000B9F1000F00F0BE80236A04930BF10103BF
:1056E0005A1BB21A7A490593184600F050F90790F0
:1056F000002800F0AC80059A7649821A059800F0DF
:1057000046F9824600283FD16FF00F06069A202303
:105710001370099A8BF8003016F1100F08F8023058
:1057200024D0731D00F0AB8016F1100F1ED016F1BF
:10573000080F1DD0684B6949694840F6B51208F05A
:1057400011FA15E0394600F005FF64E77D687E89AF
:1057500075E705226349284608F070FA20B92B1D29
:1057600006934FF001097FE700232B716FF00F06BE
:10577000206A002800F0858000F01EFD00232362CF
:105780007FE04FF0000A8EE700F110090A224D4930
:10579000484600F0FCF80028B6D0484608F0DFF88C
:1057A000B0F1000940D19AF81030302BACD19AF802
:1057B00011300D2BA8D1079B059A079904335D1B67
:1057C000AE42A3EB0203B4BF3546ADB29E42A8BFC2
:1057D0009EB20CAB012203F8012D434A4FF0000AA0
:1057E00082F800A081F800A003933F23CDE90123B4
:1057F000CDF800903346059A4146204607F0ABF8B5
:105800000646C8B9C4F85090049B002B47D059896C
:105810008D420BD2694209B2049800F0C7FC04988B
:1058200000F084FE049944E0C5DA6DE7049B6D1A2C
:105830001B680493ADB2E7E752462B492046FFF7B9
:105840000BFC064600287FF461AF002690E76FF05E
:1058500004065BE7524641462046FFF7FDFB06463D
:105860000028F2D05DE7206A00F058FE236A1B8909
:10587000B3F5806FBFF47AAF05283FF677AF6FF0CE
:105880000406384600F098FC002E3FF4AFAE103608
:105890007FF49CAE96E6384600F08EFC96E6B9F1B1
:1058A000000F7FF465AF49460222042000F0E6FCB9
:1058B00001462046FFF718FDC3E76FF0070657E7DC
:1058C000F0070020D7F20008ADF10008FA27010820
:1058D000D5F2000861F10008B3EF0008B8F1000844
:1058E00008F00008B2F10008B007002010B5044627
:1058F00030B1FFF747FB2046BDE8104000F0DAB8B2
:1059000010BD000010B52E2001F0F6FD044630B9A0
:10591000154B164916484FF4216208F023F901216E
:10592000204601F09DF850221249204600F072FFF7
:1059300030B10D4B10490E4840F6152208F012F90F
:105940002046FF2101F008F8044630B9064B0B4908
:10595000074840F6172208F005F920460849BDE837
:10596000104001F0DFB800BFB3EF0008E4F1000819
:1059700008F00008B0090108FFF100081BF2000858
:10598000E14F000840BA80B2704700BA7047F8B5DE
:10599000044608460F461546FAF724FC064630B181
:1059A000254423788BB1A219954202D200242046C7
:1059B000F8BD3A789A4206D132463946204608F078
:1059C0003DF90028F3D00134EBE71C46EFE730B592
:1059D00010F8013B11F8012B934209D043F0200449
:1059E000A4F16105192D07D842F02002944203D199
:1059F000002BEDD1184630BD0120FCE7F0B5134E69
:105A000001464FF00A0C6FF0090792FBFCF407FB0C
:105A1000046515440B4695F8235003F8015B54B90F
:105A2000002ABEBF8B1C2D224A7000215A1E1970FD
:105A3000824203D8F0BD19462246E6E71378017882
:105A400002F8011900F8013BF2E700BF71F4000809
:105A500008B500F00DF800F021FA00F06CFA04F03F
:105A600013F800F0D5FEBDE8084003F0B5BF000014
:105A70000B4B0C4A23F0030313604FF4C8621A6007
:105A800000221A71084A03F5C8611160074AC3F879
:105A90004026012283F84426054A1360704700BF60
:105AA000471B0020F40B0020F80B002040064006A6
:105AB000F00B00202DE9F0410446002800F088801A
:105AC000830706D0434B444944484FF4D67208F04C
:105AD00049F8434F3B68A34203D8424B1B68A3429B
